:100000000C9434000C9446000C9446000C9446006A
:100010000C9446000C9446000C9446000C94460048
:100020000C9446000C9446000C9446000C94460038
:100030000C9446000C9446000C9446000C94460028
:100040000C9446000C9446000C9446000C94460018
:100050000C9446000C9446000C9446000C94460008
:100060000C9446000C94460011241FBECFEFD8E03C
:10007000DEBFCDBF21E0A0E0B1E001C01D92A13004
:10008000B207E1F70E9448000C9471000C94000044
:100090008FEF84B917B815B84DEC309907C080912F
:1000A00000018F5F80930001309BFECF3199F5CF27
:1000B00090910001949F812D1124869586958695B7
:1000C00050E1859F90011124880F382F330F330F93
:1000D000830F981B922B95B9319BFECF1092000194
:0600E000DCCFF894FFCF15
:00000001FF
